{
  "contractName": "CertificateIssuer",
  "abi": [
    {
      "inputs": [],
      "stateMutability": "nonpayable",
      "type": "constructor"
    },
    {
      "anonymous": false,
      "inputs": [
        {
          "indexed": true,
          "internalType": "address",
          "name": "studentAddress",
          "type": "address"
        },
        {
          "indexed": false,
          "internalType": "string",
          "name": "studentName",
          "type": "string"
        },
        {
          "indexed": false,
          "internalType": "string",
          "name": "courseCompleted",
          "type": "string"
        },
        {
          "indexed": false,
          "internalType": "uint256",
          "name": "issueDate",
          "type": "uint256"
        }
      ],
      "name": "CertificateIssued",
      "type": "event"
    },
    {
      "anonymous": false,
      "inputs": [
        {
          "indexed": true,
          "internalType": "address",
          "name": "studentAddress",
          "type": "address"
        }
      ],
      "name": "CertificateVerified",
      "type": "event"
    },
    {
      "inputs": [
        {
          "internalType": "address",
          "name": "",
          "type": "address"
        }
      ],
      "name": "certificates",
      "outputs": [
        {
          "internalType": "address",
          "name": "studentAddress",
          "type": "address"
        },
        {
          "internalType": "string",
          "name": "studentName",
          "type": "string"
        },
        {
          "internalType": "string",
          "name": "courseCompleted",
          "type": "string"
        },
        {
          "internalType": "uint256",
          "name": "issueDate",
          "type": "uint256"
        },
        {
          "internalType": "bool",
          "name": "isVerified",
          "type": "bool"
        }
      ],
      "stateMutability": "view",
      "type": "function"
    },
    {
      "inputs": [],
      "name": "schoolAdmin",
      "outputs": [
        {
          "internalType": "address",
          "name": "",
          "type": "address"
        }
      ],
      "stateMutability": "view",
      "type": "function"
    },
    {
      "inputs": [
        {
          "internalType": "address",
          "name": "studentAddress",
          "type": "address"
        },
        {
          "internalType": "string",
          "name": "studentName",
          "type": "string"
        },
        {
          "internalType": "string",
          "name": "courseCompleted",
          "type": "string"
        }
      ],
      "name": "issueCertificate",
      "outputs": [],
      "stateMutability": "nonpayable",
      "type": "function"
    },
    {
      "inputs": [
        {
          "internalType": "address",
          "name": "studentAddress",
          "type": "address"
        }
      ],
      "name": "verifyCertificate",
      "outputs": [],
      "stateMutability": "nonpayable",
      "type": "function"
    }
  ],
  "bytecode": "0x608060405234801561001057600080fd5b50336000806101000a81548173ffffffffffffffffffffffffffffffffffffffff021916908373ffffffffffffffffffffffffffffffffffffffff160217905550610fb2806100606000396000f3fe608060405234801561001057600080fd5b506004361061004b5760003560e01c806216e526146100505780635d49111a146100845780636b9afc90146100a2578063e98ac4d8146100be575b600080fd5b61006a60048036038101906100659190610721565b6100da565b60405161007b959493929190610821565b60405180910390f35b61008c61024d565b6040516100999190610882565b60405180910390f35b6100bc60048036038101906100b79190610721565b610271565b005b6100d860048036038101906100d391906109d2565b610426565b005b60016020528060005260406000206000915090508060000160009054906101000a900473ffffffffffffffffffffffffffffffffffffffff169080600101805461012390610a8c565b80601f016020809104026020016040519081016040528092919081815260200182805461014f90610a8c565b801561019c5780601f106101715761010080835404028352916020019161019c565b820191906000526020600020905b81548152906001019060200180831161017f57829003601f168201915b5050505050908060020180546101b190610a8c565b80601f01602080910402602001604051908101604052809291908181526020018280546101dd90610a8c565b801561022a5780601f106101ff5761010080835404028352916020019161022a565b820191906000526020600020905b81548152906001019060200180831161020d57829003601f168201915b5050505050908060030154908060040160009054906101000a900460ff16905085565b60008054906101000a900473ffffffffffffffffffffffffffffffffffffffff1681565b6000600160008373ffffffffffffffffffffffffffffffffffffffff1673ffffffffffffffffffffffffffffffffffffffff16815260200190815260200160002060030154036102f6576040517f08c379a00000000000000000000000000000000000000000000000000000000081526004016102ed90610b09565b60405180910390fd5b600160008273ffffffffffffffffffffffffffffffffffffffff1673ffffffffffffffffffffffffffffffffffffffff16815260200190815260200160002060040160009054906101000a900460ff1615610386576040517f08c379a000000000000000000000000000000000000000000000000000000000815260040161037d90610b75565b60405180910390fd5b60018060008373ffffffffffffffffffffffffffffffffffffffff1673ffffffffffffffffffffffffffffffffffffffff16815260200190815260200160002060040160006101000a81548160ff0219169083151502179055508073ffffffffffffffffffffffffffffffffffffffff167f1b60cb0f1264b7afc308466532b70c887590d8a45b3fc232d8a9c51a8d17aacc60405160405180910390a250565b60008054906101000a900473ffffffffffffffffffffffffffffffffffffffff1673ffffffffffffffffffffffffffffffffffffffff163373ffffffffffffffffffffffffffffffffffffffff16146104b4576040517f08c379a00000000000000000000000000000000000000000000000000000000081526004016104ab90610c07565b60405180910390fd5b6000600160008573ffffffffffffffffffffffffffffffffffffffff1673ffffffffffffffffffffffffffffffffffffffff1681526020019081526020016000206003015414610539576040517f08c379a000000000000000000000000000000000000000000000000000000000815260040161053090610c99565b60405180910390fd5b6040518060a001604052808473ffffffffffffffffffffffffffffffffffffffff16815260200183815260200182815260200142815260200160001515815250600160008573ffffffffffffffffffffffffffffffffffffffff1673ffffffffffffffffffffffffffffffffffffffff16815260200190815260200160002060008201518160000160006101000a81548173ffffffffffffffffffffffffffffffffffffffff021916908373ffffffffffffffffffffffffffffffffffffffff16021790555060208201518160010190816106149190610e65565b50604082015181600201908161062a9190610e65565b506060820151816003015560808201518160040160006101000a81548160ff0219169083151502179055509050508273ffffffffffffffffffffffffffffffffffffffff167ffc04e6ee7273408aa842fb2467d7b5f0aca21e3781a0dc2d0d872ed96d5d114a8383426040516106a293929190610f37565b60405180910390a2505050565b6000604051905090565b600080fd5b600080fd5b600073ffffffffffffffffffffffffffffffffffffffff82169050919050565b60006106ee826106c3565b9050919050565b6106fe816106e3565b811461070957600080fd5b50565b60008135905061071b816106f5565b92915050565b600060208284031215610737576107366106b9565b5b60006107458482850161070c565b91505092915050565b610757816106e3565b82525050565b600081519050919050565b600082825260208201905092915050565b60005b8381101561079757808201518184015260208101905061077c565b60008484015250505050565b6000601f19601f8301169050919050565b60006107bf8261075d565b6107c98185610768565b93506107d9818560208601610779565b6107e2816107a3565b840191505092915050565b6000819050919050565b610800816107ed565b82525050565b60008115159050919050565b61081b81610806565b82525050565b600060a082019050610836600083018861074e565b818103602083015261084881876107b4565b9050818103604083015261085c81866107b4565b905061086b60608301856107f7565b6108786080830184610812565b9695505050505050565b6000602082019050610897600083018461074e565b92915050565b600080fd5b600080fd5b7f4e487b7100000000000000000000000000000000000000000000000000000000600052604160045260246000fd5b6108df826107a3565b810181811067ffffffffffffffff821117156108fe576108fd6108a7565b5b80604052505050565b60006109116106af565b905061091d82826108d6565b919050565b600067ffffffffffffffff82111561093d5761093c6108a7565b5b610946826107a3565b9050602081019050919050565b82818337600083830152505050565b600061097561097084610922565b610907565b905082815260208101848484011115610991576109906108a2565b5b61099c848285610953565b509392505050565b600082601f8301126109b9576109b861089d565b5b81356109c9848260208601610962565b91505092915050565b6000806000606084860312156109eb576109ea6106b9565b5b60006109f98682870161070c565b935050602084013567ffffffffffffffff811115610a1a57610a196106be565b5b610a26868287016109a4565b925050604084013567ffffffffffffffff811115610a4757610a466106be565b5b610a53868287016109a4565b9150509250925092565b7f4e487b7100000000000000000000000000000000000000000000000000000000600052602260045260246000fd5b60006002820490506001821680610aa457607f821691505b602082108103610ab757610ab6610a5d565b5b50919050565b7f4365727469666963617465206e6f7420666f756e640000000000000000000000600082015250565b6000610af3601583610768565b9150610afe82610abd565b602082019050919050565b60006020820190508181036000830152610b2281610ae6565b9050919050565b7f436572746966696361746520616c726561647920766572696669656400000000600082015250565b6000610b5f601c83610768565b9150610b6a82610b29565b602082019050919050565b60006020820190508181036000830152610b8e81610b52565b9050919050565b7f4f6e6c7920746865207363686f6f6c2061646d696e2063616e2063616c6c207460008201527f6869732066756e6374696f6e0000000000000000000000000000000000000000602082015250565b6000610bf1602c83610768565b9150610bfc82610b95565b604082019050919050565b60006020820190508181036000830152610c2081610be4565b9050919050565b7f436572746966696361746520616c72656164792069737375656420666f72207460008201527f6869732073747564656e74000000000000000000000000000000000000000000602082015250565b6000610c83602b83610768565b9150610c8e82610c27565b604082019050919050565b60006020820190508181036000830152610cb281610c76565b9050919050565b60008190508160005260206000209050919050565b60006020601f8301049050919050565b600082821b905092915050565b600060088302610d1b7fffffffffffffffffffffffffffffffffffffffffffffffffffffffffffffffff82610cde565b610d258683610cde565b95508019841693508086168417925050509392505050565b6000819050919050565b6000610d62610d5d610d58846107ed565b610d3d565b6107ed565b9050919050565b6000819050919050565b610d7c83610d47565b610d90610d8882610d69565b848454610ceb565b825550505050565b600090565b610da5610d98565b610db0818484610d73565b505050565b5b81811015610dd457610dc9600082610d9d565b600181019050610db6565b5050565b601f821115610e1957610dea81610cb9565b610df384610cce565b81016020851015610e02578190505b610e16610e0e85610cce565b830182610db5565b50505b505050565b600082821c905092915050565b6000610e3c60001984600802610e1e565b1980831691505092915050565b6000610e558383610e2b565b9150826002028217905092915050565b610e6e8261075d565b67ffffffffffffffff811115610e8757610e866108a7565b5b610e918254610a8c565b610e9c828285610dd8565b600060209050601f831160018114610ecf5760008415610ebd578287015190505b610ec78582610e49565b865550610f2f565b601f198416610edd86610cb9565b60005b82811015610f0557848901518255600182019150602085019450602081019050610ee0565b86831015610f225784890151610f1e601f891682610e2b565b8355505b6001600288020188555050505b505050505050565b60006060820190508181036000830152610f5181866107b4565b90508181036020830152610f6581856107b4565b9050610f7460408301846107f7565b94935050505056fea26469706673582212209eb470b574b95b8d1c0767b5028cc688202e6feb9c4676c99e379f6f4d4111f364736f6c63430008130033",
  "immutableReferences": {},
  "source": "// SPDX-License-Identifier: MIT\r\npragma solidity ^0.8.19;\r\n\r\ncontract CertificateIssuer {\r\n\r\n    // School admin address\r\n    address public schoolAdmin;\r\n\r\n    // Certificate structure\r\n    struct Certificate {\r\n        address studentAddress;\r\n        string studentName;\r\n        string courseCompleted;\r\n        uint256 issueDate;\r\n        bool isVerified;\r\n    }\r\n\r\n    // Mapping from student address to their certificate\r\n    mapping(address => Certificate) public certificates;\r\n\r\n    // Events\r\n    event CertificateIssued(address indexed studentAddress, string studentName, string courseCompleted, uint256 issueDate);\r\n    event CertificateVerified(address indexed studentAddress);\r\n\r\n    // Modifier to restrict function access to only the school admin\r\n    modifier onlySchoolAdmin() {\r\n        require(msg.sender == schoolAdmin, \"Only the school admin can call this function\");\r\n        _;\r\n    }\r\n\r\n    // Constructor to set the school admin\r\n    constructor() {\r\n        schoolAdmin = msg.sender;\r\n    }\r\n\r\n    // Function to issue a certificate\r\n    function issueCertificate(address studentAddress, string memory studentName, string memory courseCompleted) public onlySchoolAdmin {\r\n        require(certificates[studentAddress].issueDate == 0, \"Certificate already issued for this student\");\r\n\r\n        certificates[studentAddress] = Certificate({\r\n            studentAddress: studentAddress,\r\n            studentName: studentName,\r\n            courseCompleted: courseCompleted,\r\n            issueDate: block.timestamp,\r\n            isVerified: false\r\n        });\r\n\r\n        emit CertificateIssued(studentAddress, studentName, courseCompleted, block.timestamp);\r\n    }\r\n\r\n    // Function to verify a certificate\r\n    function verifyCertificate(address studentAddress) public {\r\n        require(certificates[studentAddress].issueDate != 0, \"Certificate not found\");\r\n        require(!certificates[studentAddress].isVerified, \"Certificate already verified\");\r\n\r\n        certificates[studentAddress].isVerified = true;\r\n\r\n        emit CertificateVerified(studentAddress);\r\n    }\r\n}\r\n",
  "sourcePath": "C:\\Users\\91944\\Desktop\\Blockchain\\contracts\\CertificateIssuer.sol",
  "compiler": {
    "name": "solc",
    "version": "0.8.19+commit.7dd6d404.Emscripten.clang"
  },
  "schemaVersion": "3.4.16",
  "updatedAt": "2024-03-30T06:45:08.012Z",
  "devdoc": {
    "kind": "dev",
    "methods": {},
    "version": 1
  },
  "userdoc": {
    "kind": "user",
    "methods": {},
    "version": 1
  }
}