{
  "contractName": "Certify",
  "abi": [
    {
      "inputs": [],
      "stateMutability": "nonpayable",
      "type": "constructor"
    },
    {
      "anonymous": false,
      "inputs": [
        {
          "indexed": true,
          "internalType": "address",
          "name": "studentAddress",
          "type": "address"
        },
        {
          "indexed": false,
          "internalType": "string",
          "name": "studentName",
          "type": "string"
        },
        {
          "indexed": false,
          "internalType": "string",
          "name": "courseCompleted",
          "type": "string"
        },
        {
          "indexed": false,
          "internalType": "uint256",
          "name": "issueDate",
          "type": "uint256"
        }
      ],
      "name": "CertificateIssued",
      "type": "event"
    },
    {
      "anonymous": false,
      "inputs": [
        {
          "indexed": true,
          "internalType": "address",
          "name": "studentAddress",
          "type": "address"
        }
      ],
      "name": "CertificateVerified",
      "type": "event"
    },
    {
      "inputs": [
        {
          "internalType": "address",
          "name": "",
          "type": "address"
        }
      ],
      "name": "certificates",
      "outputs": [
        {
          "internalType": "address",
          "name": "studentAddress",
          "type": "address"
        },
        {
          "internalType": "string",
          "name": "studentName",
          "type": "string"
        },
        {
          "internalType": "string",
          "name": "courseCompleted",
          "type": "string"
        },
        {
          "internalType": "uint256",
          "name": "issueDate",
          "type": "uint256"
        },
        {
          "internalType": "bool",
          "name": "isVerified",
          "type": "bool"
        },
        {
          "internalType": "string",
          "name": "ipfsHash",
          "type": "string"
        }
      ],
      "stateMutability": "view",
      "type": "function"
    },
    {
      "inputs": [],
      "name": "schoolAdmin",
      "outputs": [
        {
          "internalType": "address",
          "name": "",
          "type": "address"
        }
      ],
      "stateMutability": "view",
      "type": "function"
    },
    {
      "inputs": [
        {
          "internalType": "address",
          "name": "studentAddress",
          "type": "address"
        },
        {
          "internalType": "string",
          "name": "studentName",
          "type": "string"
        },
        {
          "internalType": "string",
          "name": "courseCompleted",
          "type": "string"
        },
        {
          "internalType": "string",
          "name": "ipfsHash",
          "type": "string"
        }
      ],
      "name": "issueCertificate",
      "outputs": [],
      "stateMutability": "nonpayable",
      "type": "function"
    },
    {
      "inputs": [
        {
          "internalType": "address",
          "name": "studentAddress",
          "type": "address"
        }
      ],
      "name": "verifyCertificateOwnership",
      "outputs": [
        {
          "internalType": "bool",
          "name": "",
          "type": "bool"
        }
      ],
      "stateMutability": "view",
      "type": "function"
    },
    {
      "inputs": [
        {
          "internalType": "address",
          "name": "studentAddress",
          "type": "address"
        }
      ],
      "name": "getCertificateDetails",
      "outputs": [
        {
          "components": [
            {
              "internalType": "address",
              "name": "studentAddress",
              "type": "address"
            },
            {
              "internalType": "string",
              "name": "studentName",
              "type": "string"
            },
            {
              "internalType": "string",
              "name": "courseCompleted",
              "type": "string"
            },
            {
              "internalType": "uint256",
              "name": "issueDate",
              "type": "uint256"
            },
            {
              "internalType": "bool",
              "name": "isVerified",
              "type": "bool"
            },
            {
              "internalType": "string",
              "name": "ipfsHash",
              "type": "string"
            }
          ],
          "internalType": "struct Certify.Certificate",
          "name": "",
          "type": "tuple"
        }
      ],
      "stateMutability": "view",
      "type": "function"
    }
  ],
  "bytecode": "0x608060405234801561001057600080fd5b50336000806101000a81548173ffffffffffffffffffffffffffffffffffffffff021916908373ffffffffffffffffffffffffffffffffffffffff1602179055506113c8806100606000396000f3fe608060405234801561001057600080fd5b50600436106100565760003560e01c806216e5261461005b57806316e362041461009057806326839471146100c05780635d49111a146100f05780638eb933ac1461010e575b600080fd5b61007560048036038101906100709190610a13565b61012a565b60405161008796959493929190610b13565b60405180910390f35b6100aa60048036038101906100a59190610a13565b61032b565b6040516100b79190610c97565b60405180910390f35b6100da60048036038101906100d59190610a13565b61063a565b6040516100e79190610cb9565b60405180910390f35b6100f8610689565b6040516101059190610cd4565b60405180910390f35b61012860048036038101906101239190610e24565b6106ad565b005b60016020528060005260406000206000915090508060000160009054906101000a900473ffffffffffffffffffffffffffffffffffffffff169080600101805461017390610f0e565b80601f016020809104026020016040519081016040528092919081815260200182805461019f90610f0e565b80156101ec5780601f106101c1576101008083540402835291602001916101ec565b820191906000526020600020905b8154815290600101906020018083116101cf57829003601f168201915b50505050509080600201805461020190610f0e565b80601f016020809104026020016040519081016040528092919081815260200182805461022d90610f0e565b801561027a5780601f1061024f5761010080835404028352916020019161027a565b820191906000526020600020905b81548152906001019060200180831161025d57829003601f168201915b5050505050908060030154908060040160009054906101000a900460ff16908060050180546102a890610f0e565b80601f01602080910402602001604051908101604052809291908181526020018280546102d490610f0e565b80156103215780601f106102f657610100808354040283529160200191610321565b820191906000526020600020905b81548152906001019060200180831161030457829003601f168201915b5050505050905086565b610333610953565b6000600160008473ffffffffffffffffffffffffffffffffffffffff1673ffffffffffffffffffffffffffffffffffffffff16815260200190815260200160002060030154036103b8576040517f08c379a00000000000000000000000000000000000000000000000000000000081526004016103af90610f8b565b60405180910390fd5b600160008373ffffffffffffffffffffffffffffffffffffffff1673ffffffffffffffffffffffffffffffffffffffff1681526020019081526020016000206040518060c00160405290816000820160009054906101000a900473ffffffffffffffffffffffffffffffffffffffff1673ffffffffffffffffffffffffffffffffffffffff1673ffffffffffffffffffffffffffffffffffffffff16815260200160018201805461046890610f0e565b80601f016020809104026020016040519081016040528092919081815260200182805461049490610f0e565b80156104e15780601f106104b6576101008083540402835291602001916104e1565b820191906000526020600020905b8154815290600101906020018083116104c457829003601f168201915b505050505081526020016002820180546104fa90610f0e565b80601f016020809104026020016040519081016040528092919081815260200182805461052690610f0e565b80156105735780601f1061054857610100808354040283529160200191610573565b820191906000526020600020905b81548152906001019060200180831161055657829003601f168201915b50505050508152602001600382015481526020016004820160009054906101000a900460ff161515151581526020016005820180546105b190610f0e565b80601f01602080910402602001604051908101604052809291908181526020018280546105dd90610f0e565b801561062a5780601f106105ff5761010080835404028352916020019161062a565b820191906000526020600020905b81548152906001019060200180831161060d57829003601f168201915b5050505050815250509050919050565b600080600160008473ffffffffffffffffffffffffffffffffffffffff1673ffffffffffffffffffffffffffffffffffffffff1681526020019081526020016000206003015414159050919050565b60008054906101000a900473ffffffffffffffffffffffffffffffffffffffff1681565b60008054906101000a900473ffffffffffffffffffffffffffffffffffffffff1673ffffffffffffffffffffffffffffffffffffffff163373ffffffffffffffffffffffffffffffffffffffff161461073b576040517f08c379a00000000000000000000000000000000000000000000000000000000081526004016107329061101d565b60405180910390fd5b6000600160008673ffffffffffffffffffffffffffffffffffffffff1673ffffffffffffffffffffffffffffffffffffffff16815260200190815260200160002060030154146107c0576040517f08c379a00000000000000000000000000000000000000000000000000000000081526004016107b7906110af565b60405180910390fd5b6040518060c001604052808573ffffffffffffffffffffffffffffffffffffffff16815260200184815260200183815260200142815260200160001515815260200182815250600160008673ffffffffffffffffffffffffffffffffffffffff1673ffffffffffffffffffffffffffffffffffffffff16815260200190815260200160002060008201518160000160006101000a81548173ffffffffffffffffffffffffffffffffffffffff021916908373ffffffffffffffffffffffffffffffffffffffff16021790555060208201518160010190816108a1919061127b565b5060408201518160020190816108b7919061127b565b506060820151816003015560808201518160040160006101000a81548160ff02191690831515021790555060a08201518160050190816108f7919061127b565b509050508373ffffffffffffffffffffffffffffffffffffffff167ffc04e6ee7273408aa842fb2467d7b5f0aca21e3781a0dc2d0d872ed96d5d114a8484426040516109459392919061134d565b60405180910390a250505050565b6040518060c00160405280600073ffffffffffffffffffffffffffffffffffffffff168152602001606081526020016060815260200160008152602001600015158152602001606081525090565b6000604051905090565b600080fd5b600080fd5b600073ffffffffffffffffffffffffffffffffffffffff82169050919050565b60006109e0826109b5565b9050919050565b6109f0816109d5565b81146109fb57600080fd5b50565b600081359050610a0d816109e7565b92915050565b600060208284031215610a2957610a286109ab565b5b6000610a37848285016109fe565b91505092915050565b610a49816109d5565b82525050565b600081519050919050565b600082825260208201905092915050565b60005b83811015610a89578082015181840152602081019050610a6e565b60008484015250505050565b6000601f19601f8301169050919050565b6000610ab182610a4f565b610abb8185610a5a565b9350610acb818560208601610a6b565b610ad481610a95565b840191505092915050565b6000819050919050565b610af281610adf565b82525050565b60008115159050919050565b610b0d81610af8565b82525050565b600060c082019050610b286000830189610a40565b8181036020830152610b3a8188610aa6565b90508181036040830152610b4e8187610aa6565b9050610b5d6060830186610ae9565b610b6a6080830185610b04565b81810360a0830152610b7c8184610aa6565b9050979650505050505050565b610b92816109d5565b82525050565b600082825260208201905092915050565b6000610bb482610a4f565b610bbe8185610b98565b9350610bce818560208601610a6b565b610bd781610a95565b840191505092915050565b610beb81610adf565b82525050565b610bfa81610af8565b82525050565b600060c083016000830151610c186000860182610b89565b5060208301518482036020860152610c308282610ba9565b91505060408301518482036040860152610c4a8282610ba9565b9150506060830151610c5f6060860182610be2565b506080830151610c726080860182610bf1565b5060a083015184820360a0860152610c8a8282610ba9565b9150508091505092915050565b60006020820190508181036000830152610cb18184610c00565b905092915050565b6000602082019050610cce6000830184610b04565b92915050565b6000602082019050610ce96000830184610a40565b92915050565b600080fd5b600080fd5b7f4e487b7100000000000000000000000000000000000000000000000000000000600052604160045260246000fd5b610d3182610a95565b810181811067ffffffffffffffff82111715610d5057610d4f610cf9565b5b80604052505050565b6000610d636109a1565b9050610d6f8282610d28565b919050565b600067ffffffffffffffff821115610d8f57610d8e610cf9565b5b610d9882610a95565b9050602081019050919050565b82818337600083830152505050565b6000610dc7610dc284610d74565b610d59565b905082815260208101848484011115610de357610de2610cf4565b5b610dee848285610da5565b509392505050565b600082601f830112610e0b57610e0a610cef565b5b8135610e1b848260208601610db4565b91505092915050565b60008060008060808587031215610e3e57610e3d6109ab565b5b6000610e4c878288016109fe565b945050602085013567ffffffffffffffff811115610e6d57610e6c6109b0565b5b610e7987828801610df6565b935050604085013567ffffffffffffffff811115610e9a57610e996109b0565b5b610ea687828801610df6565b925050606085013567ffffffffffffffff811115610ec757610ec66109b0565b5b610ed387828801610df6565b91505092959194509250565b7f4e487b7100000000000000000000000000000000000000000000000000000000600052602260045260246000fd5b60006002820490506001821680610f2657607f821691505b602082108103610f3957610f38610edf565b5b50919050565b7f4365727469666963617465206e6f7420666f756e640000000000000000000000600082015250565b6000610f75601583610a5a565b9150610f8082610f3f565b602082019050919050565b60006020820190508181036000830152610fa481610f68565b9050919050565b7f4f6e6c7920746865207363686f6f6c2061646d696e2063616e2063616c6c207460008201527f6869732066756e6374696f6e0000000000000000000000000000000000000000602082015250565b6000611007602c83610a5a565b915061101282610fab565b604082019050919050565b6000602082019050818103600083015261103681610ffa565b9050919050565b7f436572746966696361746520616c72656164792069737375656420666f72207460008201527f6869732073747564656e74000000000000000000000000000000000000000000602082015250565b6000611099602b83610a5a565b91506110a48261103d565b604082019050919050565b600060208201905081810360008301526110c88161108c565b9050919050565b60008190508160005260206000209050919050565b60006020601f8301049050919050565b600082821b905092915050565b6000600883026111317fffffffffffffffffffffffffffffffffffffffffffffffffffffffffffffffff826110f4565b61113b86836110f4565b95508019841693508086168417925050509392505050565b6000819050919050565b600061117861117361116e84610adf565b611153565b610adf565b9050919050565b6000819050919050565b6111928361115d565b6111a661119e8261117f565b848454611101565b825550505050565b600090565b6111bb6111ae565b6111c6818484611189565b505050565b5b818110156111ea576111df6000826111b3565b6001810190506111cc565b5050565b601f82111561122f57611200816110cf565b611209846110e4565b81016020851015611218578190505b61122c611224856110e4565b8301826111cb565b50505b505050565b600082821c905092915050565b600061125260001984600802611234565b1980831691505092915050565b600061126b8383611241565b9150826002028217905092915050565b61128482610a4f565b67ffffffffffffffff81111561129d5761129c610cf9565b5b6112a78254610f0e565b6112b28282856111ee565b600060209050601f8311600181146112e557600084156112d3578287015190505b6112dd858261125f565b865550611345565b601f1984166112f3866110cf565b60005b8281101561131b578489015182556001820191506020850194506020810190506112f6565b868310156113385784890151611334601f891682611241565b8355505b6001600288020188555050505b505050505050565b600060608201905081810360008301526113678186610aa6565b9050818103602083015261137b8185610aa6565b905061138a6040830184610ae9565b94935050505056fea264697066735822122033308e2f84ab28c2c758315c85fbe741759087ed015a29294d74ef3214ca02cc64736f6c63430008130033",
  "immutableReferences": {},
  "source": "// SPDX-License-Identifier: MIT\r\npragma solidity ^0.8.19;\r\n\r\ncontract Certify {\r\n\r\n  // School admin address\r\n  address public schoolAdmin;\r\n\r\n  // Certificate structure\r\n  struct Certificate {\r\n    address studentAddress;\r\n    string studentName;\r\n    string courseCompleted;\r\n    uint256 issueDate;\r\n    bool isVerified;\r\n    string ipfsHash; // IPFS hash of the certificate document\r\n  }\r\n\r\n  // Mapping from student address to their certificate\r\n  mapping(address => Certificate) public certificates;\r\n\r\n  // Events\r\n  event CertificateIssued(address indexed studentAddress, string studentName, string courseCompleted, uint256 issueDate);\r\n  event CertificateVerified(address indexed studentAddress);\r\n\r\n  // Modifier to restrict function access to only the school admin\r\n  modifier onlySchoolAdmin() {\r\n    require(msg.sender == schoolAdmin, \"Only the school admin can call this function\");\r\n    _;\r\n  }\r\n\r\n  // Constructor to set the school admin\r\n  constructor() {\r\n    schoolAdmin = msg.sender;\r\n  }\r\n\r\n  // Function to issue a certificate\r\n  function issueCertificate(address studentAddress, string memory studentName, string memory courseCompleted, string memory ipfsHash) public onlySchoolAdmin {\r\n    require(certificates[studentAddress].issueDate == 0, \"Certificate already issued for this student\");\r\n\r\n    certificates[studentAddress] = Certificate({\r\n      studentAddress: studentAddress,\r\n      studentName: studentName,\r\n      courseCompleted: courseCompleted,\r\n      issueDate: block.timestamp,\r\n      isVerified: false,\r\n      ipfsHash: ipfsHash\r\n    });\r\n\r\n    emit CertificateIssued(studentAddress, studentName, courseCompleted, block.timestamp);\r\n  }\r\n\r\n  // Function to verify a certificate (for student)\r\n  function verifyCertificateOwnership(address studentAddress) public view returns (bool) {\r\n    return certificates[studentAddress].issueDate != 0;\r\n  }\r\n\r\n  // Function to get certificate details (student can use retrieved IPFS hash to access the document)\r\n  function getCertificateDetails(address studentAddress) public view returns (Certificate memory) {\r\n    require(certificates[studentAddress].issueDate != 0, \"Certificate not found\");\r\n    return certificates[studentAddress];\r\n  }\r\n}\r\n",
  "sourcePath": "C:\\Users\\91944\\Desktop\\Blockchain\\contracts\\Certificate.sol",
  "compiler": {
    "name": "solc",
    "version": "0.8.19+commit.7dd6d404.Emscripten.clang"
  },
  "schemaVersion": "3.4.16",
  "updatedAt": "2024-03-30T06:45:08.003Z",
  "devdoc": {
    "kind": "dev",
    "methods": {},
    "version": 1
  },
  "userdoc": {
    "kind": "user",
    "methods": {},
    "version": 1
  }
}